:020000040800F2
:10000000C0B502205D020008650200086702000812
:10001000690200086B0200086D0200080000000081
:100020000000000000000000000000009D0100082A
:100030007102000800000000F901000891B40008F6
:100040007702000877020008770200089DA80008E0
:1000500077020008770200086D680008A9680008A8
:1000600077020008E568000877020008F15E0008E2
:10007000770200087702000877020008770200087C
:10008000770200087702000877020008770200086C
:1000900011E20008770200087702000877020008E2
:1000A00077020008B9B60008770200087702000856
:1000B000FDB6000869B7000809B800087702000813
:1000C000770200087702000877020008770200082C
:1000D000770200087702000877020008770200081C
:1000E000816800087702000877020008770200089C
:1000F00077020008770200087702000877020008FC
:10010000770200087702000869B800087702000843
:1001100065E100087702000891B80008770200083E
:1001200077020008770200087702000877020008CB
:1001300077020008770200087702000877020008BB
:1001400000000000000000000000000000000000AF
:10015000770200087702000877020008770200089B
:10016000770200087702000877020008770200088B
:10017000770200087702000877020008770200087B
:1001800077020008DFF810D001F092FC0048004729
:1001900025800408AFF30080C0B502202C4B1968FD
:1001A0000868B0E8F04F80F30988BFF36F8F4FF015
:1001B000000080F3118870470000000008480068C4
:1001C000006880F308884FF0000080F3148862B65E
:1001D00061B6BFF34F8FBFF36F8F00DF00BF00BF6B
:1001E00008ED00E0DFF80C00016841F470010160E7
:1001F000704700BF88ED00E0EFF30980BFF36F8F19
:10020000134B1A681EF0100F08BF20ED108A20E96A
:10021000F04F106009B44FF0100080F31188BFF365
:100220004F8FBFF36F8F4DF03FFE4FF0000080F314
:10023000118809BC19680868B0E8F04F1EF0100F6B
:1002400008BFB0EC108A80F30988BFF36F8F704746
:10025000F0340020EFF30580704700000648804727
:1002600006480047FEE7FEE7FEE7FEE7FEE7FEE79B
:10027000FEE7FEE7FEE7FEE7D5B4000885010008CB
:100280002DE9F04FA5B04AF2BC500024C2F20100A3
:10029000ADF89040CDE92244CDE92044CDE91E449B
:1002A000CDE91C44CDE91A4404709F2018AE8DF8A6
:1002B00060001EAA30460121032343F08DFE9DF805
:1002C00079109DF878009DF87A20090241EA0040F3
:1002D0004EF68C478518301DC0F606074FF0000912
:1002E0000190009505E000BF09F12809B9F5207FCC
:1002F0007AD007EB090ADAF808008542F4D19AF8B7
:1003000011009AF812608DF86000DAF80400ADF878
:100310009040010C8DF86110010A8DF862100121E6
:10032000CDE92244CDE92044CDE91E44CDE91A446B
:100330001C941D948DF86300012E88BF31460198EE
:10034000DAF80C8000F089FF301D57F809600DF1D4
:10035000780BC1B218A85A4633463D4643F03CFEDE
:1003600044F66E71C3F245014BF8061044F2584151
:100370000BEB0600C6F66E31416043F2483102AF26
:100380000181384600F038F806F10A02384659462D
:1003900000F04AF81AAE3846314600F08FF89AF865
:1003A000100005218DF860004FEA18408DF86100BB
:1003B0004FEA18208DF8620018A85A4610238DF8CD
:1003C00063808DF864402F4643F006FE3046594660
:1003D000102200F062FF009D002885D14AF2BC5136
:1003E0000120C2F2010108704AF2BC50C2F20100C1
:1003F000007825B0BDE8F08F80B5002142F20132CF
:10040000C6F245724AF689334DF6FE4C45F2764EF9
:10041000E0E80211CEF6CD73C9F6BA0CC1F2320E85
:1004200080E80C5080BD00BF2DE9F0478046006891
:100430000D46C0F3C50A00EBC2011446CAF14007DD
:100440008142C8F8001004D2D8F804000130C8F87E
:100450000400D8F80400A74200EB5470C8F8040068
:1004600001D9002720E008F1180909EB0A00294604
:100470003A4600F0CAFE08F108063046494600F048
:10048000F1FACAF18000A04202D94FF0000A0BE055
:10049000E919304600F0E6FA07F18000A04207F1C2
:1004A0004007F5D94FF0000A08EB0A001830E919A7
:1004B000E21B00F0AAFEBDE8F08700BF2DE9F04185
:1004C00082B00546044655F8080B0E46C0F3C50039
:1004D0007821382838BF3821E8460F1A404621468F
:1004E000082200F06FFE43F27451C2F20001204670
:1004F0003A46FFF799FF204641460822FFF794FF4E
:1005000030462946102200F05DFE02B0BDE8F081C1
:100510004AF2BD51C2F20101087070474AF2BD5063
:10052000C2F201000078704770B514464AF2BC521E
:10053000C2F201021278002A3ED00E460546FFF7AD
:10054000EDFF80B1142E14D00A2E21D0092E33D104
:10055000284600F0D9F8411C2ED04FF41C7101EB55
:100560004010202522E0284600F07AF80546142E97
:10057000EAD1284600F0C8F8411C1DD04FF238518E
:1005800000EBC000C0F21E0101EBC00048250DE0E9
:10059000284600F0B9F8411C0ED04CF23061C0EB97
:1005A0000010C0F20A0101EB80003C2529462246DA
:1005B00048F0FEFE284670BD002070BDB0B5144660
:1005C0004AF2BC52C2F20102127832B321290ED093
:1005D0001E2922D1C0B200F011F9411C1DD042F6F3
:1005E000A851C0F2370101EB001010250FE0C0B296
:1005F00000F004F9411C10D042F6A85100EB400075
:10060000C0F2370101EB001000F5006030252946EB
:10061000224648F0CDFE2846B0BD0020B0BD00BF48
:10062000B0B514464AF2BC52C2F201021278322925
:100630004FF000050FD172B100F0E6F8411C0CD06C
:1006400045F6A871C0F2370101EB001010212246D7
:10065000102548F0ADFE2846B0BD0020B0BD00BF5B
:1006600080B582B0A0F59C4245F2A51300219A42C4
:10067000ADF8061002D844F249012AE04EF2667144
:10068000411AFE2902D848F6090122E04FF62C1142
:10069000411AFD2902D849F6D0011AE04FF630611F
:1006A000411A4908DA2902D849F6D64111E0A0F5E5
:1006B000405140F2D532914202D842F21F6108E027
:1006C00042F21001411A40F23262914213D841F6CF
:1006D0006241401A49F64821C0F2370101EB40005F
:1006E0000DF10602022148F063FEBDF80600000489
:1006F00000BA02B080BDA43840F2AD318842E9D9D9
:10070000002002B080BD00BFC1B2FF29C0F30722A4
:1007100013D0A12911D30023B3EB104F0DD16FF0EB
:10072000AF0353FA90F3472B9FBF5E2012FB0010DC
:1007300043F63351401A98BF7047FF2915D040291E
:1007400013D30023B3EB104F0FD1A2F181031F2B62
:100750000BD87F2918D04FF0BE0188BF0138514314
:1007600051FA80F0A0F583407047A1F1400CBCF134
:10077000600F0BD8FF2A09D00023B3EB104F05D12F
:10078000AA2A03D37F292ED100207047FF2911D038
:10079000A1290FD30023B3EB104F0BD1A2F1A1037A
:1007A000082B9FBF5E2012FB001043F6BF31401A9A
:1007B00098BF704720F0FF02B2F5284F05D1BCF179
:1007C0005E0F9CBF01F20E3070474FF0FF30BCF15E
:1007D0005F0F38BF01F26E304FF0FF33B2F5294F93
:1007E00018BF1846704702EB420188BF0138490123
:1007F00051FA80F0A0F6C210704700BF20385F2881
:1008000028BF4FF0FF307047A0F12001602901D2CE
:1008100008467047A0F1A00109091A2907D9A0F5D7
:1008200014715F2903D9A0F52C714F2903D8A0F1C9
:10083000400108467047A0F55C718F299EBFA0F16A
:10084000B00108467047A0F5F5524FF0FF3141F670
:1008500050335A2A38BFC11A0846704780B582B053
:10086000C3B20021FF2BC0F30722ADF806100BD056
:10087000A12B09D36FF0A00151FA90F1082903D8F8
:100880005E2043F6BF3118E000F47E41B1F5284FF9
:10089000A3F1400C06D1BCF1600F03D87F2B21D10E
:1008A00000211CE0FF2B25D0A12B23D3A2F1B00106
:1008B00047291FD85E2043F633515043591A084444
:1008C00046F26801C0F2380101EB40000DF106026A
:1008D000022148F06DFDBDF80600000401BA08468B
:1008E00002B080BD88BF013802EB4201C0B24CF2B9
:1008F0000E421EE0FF2B09D0402B07D3A2F181014D
:100900001F2903D87F2B19D10021E8E77F2B4FF057
:100910000001E4D0BCF1600FE1D8AA2ADFD3FF2A9E
:10092000DDD07F2B88BF013802EB4201C0B24FF20D
:100930003E62CFF6FF7202EB4111C0E74BF68061D9
:1009400088BF0138CFF6FF71BE23C0B212FB03117E
:10095000B5E700BFA1F10902292A4FF0000088BFC6
:1009600070470FF20C0101EB82031021DFE802F067
:100970001C171D1D1D1D1D1D1D1D1D191D1D1D1DB2
:100980001D1D1D1D1D151D1D1B1D1D1D1D1D1D1DA1
:100990001D1D1D1D1D1D1D1D1D15082104E01421FB
:1009A00002E0182100E00C2108467047A1F109027D
:1009B000292A4FF0000088BF70470FF20C0101EBAD
:1009C00082031021DFE802F01817191919191919F3
:1009D000191919151919191919191919191819198C
:1009E000151919191919191919191919191919197B
:1009F0001918182100E0142108467047002070479C
:100A00004EF644420021C0F6060200BF535C83420A
:100A100004BF501870470C31482904BF00207047AC
:100A2000F4E700BF80B5FFF7EBFF002814BF007AA2
:100A3000002080BD40B14AF2BC51C2F201010978E8
:100A400000291CBF406970470020704740B14AF23E
:100A5000BC51C2F20101097800291CBF40697047EE
:100A6000002070472DE9F04FD1B00890D0E9008503
:100A7000D0E902A911A800F099FB0AEA050029EAC9
:100A800005014044DDE9118308444AF278414044BD
:100A9000CDF26A71084405EB706110932AEA0102F5
:100AA0004B4401EA05001A4410444BF25672CEF64C
:100AB000C702139E104401EB305225EA02030AEBF1
:100AC000060702EA01003B44184447F2DB03C2F286
:100AD0002043149C184402EBF0330E9621EA0307DE
:100AE0002E1903EA0200374438444CF6EE67CCF284
:100AF000BD173844159D03EBB02022EA00062944B7
:100B000000EA03073144394440F6AF77CFF27C570F
:100B1000AA460C953944169D00EB716123EA010643
:100B20002A4401EA000732443A444CF22A67C4F2EC
:100B300087773A44DDF85C9001EB325220EA0206F6
:100B40004B4402EA010733443B4444F21367CAF6BC
:100B500030073B4402EBF336189B21EA06071844A2
:100B600006EA020C384449F201576044CFF6465772
:100B7000384406EBB02E199822EA0E0C0144614469
:100B80000EEA0607394449F6D807C6F680170593DA
:100B900039441A9B0B900EEB7160991826EA0002FB
:100BA000114400EA0E0211444FF2AF72C8F644320B
:100BB000019311441B9B00EB315299192EEA020656
:100BC000314402EA000631444AF24F46891B1C9F19
:100BD00002EBF13106949C460D9307EB0E033C4665
:100BE0000F9720EA01073B4401EA02073B444DF21C
:100BF000BE77C8F65C171F441D9B01EBB72718444E
:100C000022EA0706304407EA0106304441F2221680
:100C1000C6F69036029330441E9B07EB7066981818
:100C200021EA0602104406EA0702104447F2931232
:100C3000CFF698520244DDF87CE006EB3252714464
:100C400027EA020B0995594402EA0605294444F2B1
:100C50008E35CAF279650D44209802EBF5350744CC
:100C600026EA0501394405EA0207394440F621071E
:100C70000A93C4F6B417109B39441E4425EA0207B0
:100C800005EBB1213E4401EA02073E4442F26257BD
:100C9000CFF21E673E444A4421EA050701EBF6669F
:100CA0003A4406EA05073A444BF24037CCF2400793
:100CB0003A44254426EA010706EBF2523D4402EA93
:100CC00001073D4445F65127C2F25E673D44414469
:100CD00022EA060702EBB545394405EA060739441E
:100CE0004CF2AA77CEF6B617099B39441E4425EA82
:100CF000020705EB31313E4401EA02073E4441F26E
:100D00005D07CDF22F673E44624421EA050701EBFF
:100D1000F6663A4406EA05073A4441F25347C0F200
:100D200044273A44054426EA010706EBF2523D44C3
:100D300002EA01073D444EF28167CDF6A1073D442A
:100D4000514422EA060702EBB545394405EA060795
:100D500039444FF6C837CEF2D377DDF804B03944C2
:100D60005E4425EA020705EB31313E4401EA020701
:100D70003E444CF6E657C2F2E1173E44724421EA83
:100D8000050701EBF6663A4406EA05073A4440F2E5
:100D9000D677CCF23737DDF818C03A44654426EAF6
:100DA000010706EBF2523D4402EA01073D4440F6DA
:100DB0008757CFF2D5470B9C3D44214422EA0607D2
:100DC00002EBB545394405EA0607394441F2ED47DF
:100DD000CDF80C80C4F25A57DDF8288039444644D7
:100DE00025EA020705EB31313E4401EA02073E44A1
:100DF0004EF605170490CAF6E3170E983E440244D7
:100E000021EA050701EBF6663A4406EA05073A448B
:100E10004AF2F837CFF6EF4705983A44054426EAF8
:100E2000010706EBF2523D4402EA01073D4440F25D
:100E3000D927CDF81C90C6F26F77DDF808903D44B5
:100E4000494422EA060702EBB545394405EA06079C
:100E5000394444F68A47C8F62A57394405EB3131FC
:100E600081EA05071E4487EA020A43F64213564404
:100E7000CFF6FA73334401EB337387EA0306224457
:100E800032444FF28166C8F2717632440F9C03EB14
:100E9000725283EA010656402544354446F2221632
:100EA000C6F69D56354402EB354582EA03066E4090
:100EB0007144314443F60C06CFF6E5563144109F99
:100EC00005EB712185EA02064E403B4433444EF661
:100ED0004426CAF2BE4633440C9F01EB337381EAC9
:100EE00005065E403A4432444CF6A976C4F6DE3636
:100EF000324403EB725283EA0106564005443544FE
:100F000044F66036CFF2BB6635440D9C02EB3545A6
:100F100082EA03066E40214431444BF67046CBF61C
:100F2000BF66314405EB712185EA02064E40434419
:100F3000334447F6C666C2F69B063344039F01EB73
:100F4000337381EA05065E403A44324442F2FA764F
:100F5000CEF6A126324403EB725283EA01065640D4
:100F60006544354443F28506CDF2EF46CDF800E006
:100F70003544DDF81CE002EB354582EA03066E409D
:100F80007144314441F60556C0F28846314405EBC0
:100F9000712185EA02064E405B4433444DF2390626
:100FA000CDF6D416334401EB337381EA05065E4077
:100FB0004A44324449F6E516CEF2DB66E046324456
:100FC000DDF810C003EB725283EA01065640654417
:100FD000354447F6F846C1F6A2763544DDF838A028
:100FE00002EB354582EA03066E405144314445F236
:100FF0006566CCF2AC46314405EB712161EA02062C
:101000003B446E40334442F24426CFF229463344F7
:1010100001EBB36363EA050602444E4032444FF6E7
:101020009776C4F22A363244009803EBB252284431
:1010300062EA01055D40284442F2A735CAF69435BC
:101040002844099D02EB7040294460EA030555409D
:1010500029444AF23905CFF69345294400EBF121A2
:1010600061EA02074B4447403B4445F6C317C6F2CA
:101070005B573B4401EBB36363EA000742444F40D4
:101080003A444CF69247C8F60C773A440D9F03EB6E
:10109000B252384462EA01075F4038444FF27D475C
:1010A000CFF6EF77384402EB7040109C60EA0307FC
:1010B00021445740394445F6D157C8F28457394442
:1010C00000EBF1210B9C61EA0207234447403B44BB
:1010D00047F64F67C6F6A8773B4401EBB36363EA74
:1010E000000762444F403A444EF2E067CFF62C6767
:1010F0003A4403EBB25262EA010770445F4038445D
:1011000044F21437CAF2013738440A9F02EB7040A8
:10111000394460EA03075740394441F2A117C4F645
:10112000086739440C9F00EBF1213B4461EA020758
:1011300047403B4447F68267CFF253773B440F9FCB
:1011400001EBB3633A4463EA00074F403A444FF27D
:101150003527CBF63A573A4403EBB25262EA01071D
:1011600050445F4038444DF2BB27C2F6D72738447D
:1011700002EB704060EA030757405944089D394428
:101180004DF29137CEF686372E6839446F68334476
:101190002B60C31903EBF121AB686960E96818445F
:1011A000A8605018E86051B0BDE8F08FCA1E04383E
:1011B000102100BFD2F80330043240F8043F013957
:1011C000F8D17047B0B5002A08BFB0BD00F1010CDE
:1011D000002300BF51F803E00CEB030000F801EC22
:1011E00051F803E0CD184FEA1E240CF803406C8838
:1011F00004334470ED7893428570EBD3B0BDA0F119
:101200004101192900D82030704710B5441A03460F
:10121000944209D28418114403E011F8013D04F806
:10122000013D521EF9D210BD40EA0104A40703D0CB
:1012300009E010C9121F10C3042AFAD203E011F802
:10124000014B03F8014B521EF9D210BDD2B201E09E
:1012500000F8012B491EFBD270470022F6E710B5BB
:1012600013460A4604461946FFF7F0FF204610BD14
:10127000421C10F8011B0029FBD1801A704710B5E1
:10128000002200E0521C835C8C5CA34201D1002B45
:10129000F8D1D8B2E1B2401A10BD30B504460020F2
:1012A000034600E05B1C934203D2E05CCD5C401B34
:1012B000F8D030BD034611F8012B00F8012B002AAD
:1012C000F9D11846704770B506460EF0B7FC0468B1
:1012D00005460A220021304600F006FB2C6070BD56
:1012E0002DE9FE4F804681EA0300C00F0C460090B6
:1012F00021F0004123F00045B8EB0200A94105D2DE
:101300004046214690461C460B46024623F00040CC
:10131000104347D0270DC7F30A00C3F30A510290C8
:10132000401A019040286BDAC3F3130040F4801B8D
:101330000098924620B10023D2EB030A63EB0B0B1B
:1013400001985946C0F14002504600F04EFA064658
:101350000D4650465946019A00F066FA10EB080017
:101360006141002487EA115284EAE7731A4340D0AE
:10137000009A62B3019A012A4FEA075215DC001B5A
:1013800061EB02014FF0004202EA0752CDE9004250
:10139000001C41F5801132462B4600F023FB03B0C0
:1013A000BDE8F08F40462146F9E7001B61EB0201E2
:1013B000001C41F5801300185B412018A2F50017AE
:1013C00047EB030140EAD570B6196D4111E06D0895
:1013D0004FEA360645EAC0754FEA0752001B61EB3B
:1013E0000201001C41F5801149084FEA3000001944
:1013F000514132462B4603B0BDE8F04F00F0E3BA4E
:101400000098012240000023D0EB020263EBE0735E
:10141000009821464FEAE074B8EB000061EB04014C
:10142000E9E783F000435BE781F0004158E72DE9ED
:10143000FE4F81EA030404F0004421F000410094CF
:101440004FF0000B23F0004350EA01045ED052EA53
:1014500003045BD0C3F30A54C1F30A552C44A4F22D
:10146000F3340194A0FB0254C1F3130141F4801141
:10147000C3F3130343F4801301FB024400FB034E48
:10148000840A970A44EA815447EA8357A4FB076811
:1014900002958D0A05FB07854FEA932C04FB0C543B
:1014A0002705029D4FEA065847EA1637B5EB0805AF
:1014B0006EEB070C870E920E47EA811742EA831201
:1014C000A7FB0201B6EB0B0164EB00042B0D43EA12
:1014D0000C335E1844EB1C50DA465146E7FB020120
:1014E000C5F313044FEA0B3343EA14534FEA0432B3
:1014F000019C43EA0603A4F10C040294009CCDE98C
:1015000000B400F06FFA03B0BDE8F08F0020014690
:10151000F9E72DE9F04D81EA030404F0004B21F0D6
:10152000004514464FF0000A23F0004150EA05023E
:1015300020D054EA01021DD0C5F30A570246C5F374
:101540001303C1F31300C1F30A5640F4801543F4AA
:101550008013A7EB0608101BD64608F2FD3873EB84
:10156000050002D308F1010801E092185B41B8F1CF
:10157000000F03DA00200146BDE8F08D00204FF493
:101580008011064684460EE0171B73EB050705D352
:10159000121B63EB050306434CEA010C49084FEAB2
:1015A000300092185B4150EA0107EDD152EA030086
:1015B00012D082EA040083EA0501084305D0101B1B
:1015C000AB4106D20122002306E000224FF0004387
:1015D00002E06FF0010253101AEB06004CEB0851C9
:1015E00010EB0A0041EB0B01BDE8F04D00F0EBB948
:1015F0000EB5C10F80EAE0700844CA07002140F22E
:1016000033438DE80E000A460B4600F0EBF903B0B9
:1016100000BD0EB540F2334102910021CDE9001129
:101620000A460B4600F0DEF903B000BD70B5C1F309
:101630000A5201F000450024C1F3130140F2FF33C8
:1016400041F480119A4201DA002070BD40F2334328
:101650009A42A2F2334203DC524200F0D5F800E095
:1016600090402C43F1D0404270BDC1F30A5210B5F6
:10167000C1F3130140F2FF3341F480119A4201DAC1
:10168000002010BD40F233439A42A2F2334203DC01
:10169000524200F0B9F810BD904010BD00F0004279
:1016A00030F000400AD0C10D01F56071C0F31600A2
:1016B00042EA0151C2084007114370470020014629
:1016C0007047000030B5041E71F1000404DB4FF0D8
:1016D0000044404264EB0101141E73F1000405DB79
:1016E0001C464FF00043524263EB04038B4208BF99
:1016F000824230BD30B5041E71F1000404DB4FF0AE
:101700000044404264EB0101141E73F1000405DB48
:101710001C464FF00043524263EB0403994208BF5A
:10172000904230BD01F0004330B421F0004150EA56
:10173000010206D00A0DA2F56072C1F31301002A5E
:1017400002DC30BC00207047440F44EAC104C100F1
:10175000E01830BC00EBC25000F0FEB830B50B46CC
:10176000014600202022012409E021FA02F59D42D1
:1017700005D303FA02F5491B04FA02F52844151EA5
:10178000A2F10102F1DC30BD2DE9F05F0546002039
:1017900092469B4688460646814640241BE02846E2
:1017A00041464746224600F02FF853465A46C01A93
:1017B000914110D311461846224600F016F82D1A12
:1017C00067EB01084F4622460120002100F00DF88A
:1017D00017EB00094E41201EA4F10104DFDC48464E
:1017E00031462A464346BDE8F09F202A04DB203AD2
:1017F00000FA02F1002070479140C2F1200320FA64
:1018000003F3194390407047202A04DB203A21FA61
:1018100002F00021704721FA02F3D040C2F1200209
:101820009140084319467047202A06DBCB17203A1F
:1018300041FA02F043EAE07306E041FA02F3D040D5
:10184000C2F1200291400843194670470FB40023AB
:1018500000B589B00CA900910B996FF00042CB60E4
:101860001E4B06931E4B07930423CDE901321D4AFC
:10187000089202466B46002000F0CEF909B05DF8F0
:1018800014FB70B586B006464FF0FF300091CDE9ED
:101890000101002015460C4604903246694604A812
:1018A000FFF7D4FF02460498211825B108B1084675
:1018B00000E020462860049800280DD0002A02DDB0
:1018C0000098884208D0081B0094CDE901043246F4
:1018D000694604A8FFF7BAFF06B070BD511E0008A4
:1018E0006F1E0008DD1A00082DE9F04791460F46EB
:1018F00080460446002614F8015B2DB100F0EAF89A
:101900000068405DC007F6D12B2D02D02D2D18D0D8
:10191000641E4A463946204600F0BAFA27B13968B3
:10192000A14201D1C7F8008071054FF002040BD528
:101930004042002803DD0EF081F90460A007BDE8F5
:10194000F08746F48066E4E70028F8DA0EF076F9CE
:1019500004606FF00040F2E70029A8BF7047401C08
:10196000490008BF20F00100704710B4B0FA80FCB5
:1019700000FA0CF050EA010404BF10BC704749B1F2
:10198000CCF1200421FA04F411FA0CF118BF012162
:1019900021430843A3EB0C01CB1D4FEA00614FEA42
:1019A000102042BF002010BC704700EBC350104411
:1019B0000029A4BF10BC7047401C490008BF20F09C
:1019C000010010BC704710B5141E73F1000408DA52
:1019D000401C41F1000192185B411A4301D120F0F3
:1019E000010010BD2DE9F04D92469B4611B1B1FAB0
:1019F00081F202E0B0FA80F220329046FFF7F5FE65
:101A000004460F4640EA0A0041EA0B0153465A4693
:101A1000084313D0114653EA010019D0C8F140021F
:101A20005046FFF7F1FE05460E46504659464246DF
:101A3000FFF7DBFE084305D0012004E020463946CD
:101A4000BDE8F08D0020054346EAE0762C4337439D
:101A50000A986305E40AA0EB08000022FD0A44EAA4
:101A600047540A3002D500200146E9E70105101964
:101A70006941DDE9084500196941BDE8F04DA2E77B
:101A8000C1F30A52C1F3130140F2FF3341F4801154
:101A90009A4202DA00200146704740F233439A42EC
:101AA000A2F2334202DC5242FFF7AEBEFFF79DBE08
:101AB000064C074D06E0E06840F0010394E807009B
:101AC00098471034AC42F6D3FEF760FB0CEF0608E3
:101AD0002CEF060800487047D8CA060810B504461F
:101AE000FFF7F8FF0068005D00F0010010BD000086
:101AF0002DE9FF4F087883B09946FF2805D0491C8F
:101B00002D2804D00024002008E000200BE0012450
:101B1000F9E700EB800003EB4000491C0B78FF2B3A
:101B2000F7D104B1404200230293147819461D46B0
:101B30002D2C01D02B2C04D1521C2D2C13D0002481
:101B40000294AA461478FF2C0FD00A25A3FB05782F
:101B500001FB05814FF0000C03FB0C11521CE31933
:101B60004AEB0101EEE70124EAE7814453EA010070
:101B700002D019F5C87F06DA03980021C0E90011E8
:101B800007B0BDE8F08F0025AE4E2F46DFF8B882D3
:101B9000184600F0DAF9CDE90001B9F1000002DAE7
:101BA000C9F1000400E004460023A74A1AEB030B26
:101BB00042EB045A12E0E00707D02A463346384683
:101BC0004146FFF734FC074688462A46334610460E
:101BD0001946FFF72CFC05460E466410002CEAD18E
:101BE000DDE90001B9F1000F5A46534606DAFFF766
:101BF00090FC3A464346FFF78CFC05E0FFF717FCE4
:101C00003A464346FFF713FC029A0AB181F00041BD
:101C1000039AC2E90001B3E72DE9FF4F1F468DB0DB
:101C2000D7E901464FF0FF382E2045464FF0000916
:101C30000B90B9696D1C0E988847396A82468847AF
:101C40000028F6D1BAF1FF3F0AD024F4D064002E68
:101C500011DDBAF12B0F08D0BAF12D0F0BD102E034
:101C6000404611B08DE744F48064B9696D1C0E984C
:101C700088478246761E6946600501D52D2000E022
:101C80002B208DF8000001F1010B0DF1200809E077
:101C9000B9696D1C0E98884782460F9844F4007409
:101CA000761E0560002E02DDBAF1300FF0D00B99E0
:101CB0008A453ED144F0800406E00F99681CA9F1E2
:101CC000010944F400740860B9696D1C761E0E9811
:101CD000884782463028F0D02BE00B998A4505D101
:101CE000200603D444F08004761E18E0504613F01A
:101CF00003FF08B30DF11301761E44F400748B4505
:101D000008D2AAF130000BF8010B200607D5A9F183
:101D1000010003E0200602D409F101008146A0057C
:101D200002D50F99681C0860B9696D1C0E98884728
:101D30008246002ED1DC53E0002E51DDBAF1650F52
:101D400002D0BAF1450F4BD1A00549D5B9696D1C38
:101D500024F44074761E0E9888478246002E0CDDCF
:101D60002B2804D0BAF12D0F07D144F48074B9693F
:101D70006D1C0E9888478246761EE00501D52D2100
:101D800000E02B2108F8011BCDF82C8021E00DF19B
:101D90002901761E44F4007488450CD2AAF1300063
:101DA00010F0FF0088F8000002D10B99884509D98E
:101DB00008F1010806E0E00501D5244801E042F2FF
:101DC0000F708146B9696D1C0E98884782460F983E
:101DD0000560002E04DD504613F08EFE0028D6D19B
:101DE000F9690E988847FF208BF8000088F80000FA
:101DF0000020069007904B466A4608A906A8FFF700
:101E000077FEA00502D46FF001002AE714F0240F3A
:101E10000AD0E00714D1DDE906123868031D3B60E3
:101E20000068C0E900120BE0DDE90601FFF77AFC6B
:101E30000146E00704D13868021D3A60006801607D
:101E400028460EE7000014400000F03FF1D8FFFFE5
:101E5000426842B1016811F8013B23B1521EC0E94A
:101E60000012184670470121C160881E7047426801
:101E70005AB1C368016843B983688B4205D0491ED3
:101E8000521CC0E90012002070474FF0FF3070472D
:101E90002DE9F05F82460078002715468B460AF14F
:101EA0000104B946302801D09DB113E014F8010BAC
:101EB0000127782803D0582801D045B10AE00DB198
:101EC000102D07D10027102514F8010B02E008257A
:101ED00000E00A250026B0460EE005FB080005FBE1
:101EE00006F1012701EB10461FFA80F8B6F5803F96
:101EF00000D3B94614F8010B294600F018F8002861
:101F0000EBDABBF1000F05D00FB1641E00E05446C0
:101F1000CBF80040B9F1000F06D00DF08FFE022182
:101F20000160C81EBDE8F09F48EA0640FAE73A287B
:101F300000D2303820F02002412A01D3A2F137002C
:101F4000884201D34FF0FF3070470EB540F2334264
:101F500002920022CDE900221346FFF743FD03B0B1
:101F600000BD70B58C1810F8015B15F0070301D1A6
:101F700010F8013B2A1106D110F8012B03E010F8EC
:101F8000016B01F8016B5B1EF9D12B0705D400230F
:101F9000521E0DD401F8013BFAE710F8013BCB1AB1
:101FA000921C03E013F8015B01F8015B521EF9D5A6
:101FB000A142D8D3002070BD08B50EA10F48FFF78D
:101FC00079F90E480E499FED0F0B01620F494FF44E
:101FD000FA7281ED020B9FED0E0B81ED000B0921D2
:101FE00041620020034601460090502020F0D2F8C4
:101FF00008BD00004144313230000000F45301209C
:10200000B82F0020000000000040CF409054012075
:10201000000000000076D64008B50EA10F48FFF77B
:1020200049F90E480E499FED0F0B016214214162E0
:102030000E484FF4FA7280ED000B9FED0D0B80ED12
:10204000020B0020034601460090502020F0A2F829
:1020500008BD000041445F5500000000F45301201A
:10206000F8440120000000000094D1409054012069
:10207000000000000070C74038B5144C12482062C0
:10208000134890F8240000EB4001C1EBC010114947
:1020900001EB400120469631FFF70CF90C206062FD
:1020A0000F489FED0D0B4FF4FA7280ED020B9FED80
:1020B0000D0B80ED000B00200346014600905120DF
:1020C00020F068F838BD0000A84301201C5401200E
:1020D000B8410120B2A505089A9999999999B93FF3
:1020E00090540120000000000000104008B506498F
:1020F00001200023086000904FF4FA72194658201E
:1021000020F048F808BD0000F02A002008B5064974
:10211000032000230860012000904FF4FA72194652
:10212000582020F037F808BDF02A00202DE9FF4F95
:10213000ABB09146389E0BA9CDE90236CDE9001926
:10214000834622AB1AAA13A904A800F095F80DF152
:10215000100A13AA082E41D30020F10896460091D8
:102160000023009C30E0002229E00BAD03FB01219D
:1021700055F8205001FB04573E4951F820503831A2
:1021800051F8201003FB01553A491C3951F82060E1
:10219000383105FB096551F8201002FB01556543F4
:1021A000002109E02C9E07EB010C05EB010816F855
:1021B0000CC00BF808C0491CA142F3D3521C5AF8BA
:1021C00020109142D1D85B1C5EF820109942CAD8E9
:1021D000401C0728C4D12FB0BDE8F08F002409FBB4
:1021E00006F904A8002750F8240000FB06FA38E09E
:1021F000002530E007FB0AF005FB06010BA850F8AC
:10220000240001EBC00001901A4850F82410383027
:1022100050F8240007FB0010164900FB09F01C3998
:1022200051F82420383151F8241005FB012101FB1D
:102230000600009000200AE001A82C9947F0C1F8A0
:1022400002465946684648F059FD08F101008046AB
:10225000B042F1D36D1C04A850F82400A842C9D89C
:102260007F1C13A850F82400B842C1D8641C072C66
:10227000B7D1B0E7F00D05082DE9F04F0024DDE9F6
:102280000BA5DDE9097BDFF8F8E0A146DFF8F0C037
:102290005EF82460ACF1380C06EB0B085CF824C047
:1022A000A8EB0C0CACF1010CBCFBF6F640F824607A
:1022B000334EDFF8CCC01C36ACF11C0C56F8246051
:1022C0005CF824C006EB0A08A8EB0C0CACF1010C7E
:1022D000BCFBF6F641F8246050F824C0BCF1000FB6
:1022E00001D016B103E041F8249040F82490641C1A
:1022F000072CCBD1C7F80090C3F800900024C2F897
:10230000009050F824C0BCF1000F0DD051F82460AB
:1023100056B10CFB05FC4FF001080CF1070C08EB63
:10232000DC0C06FB0CF600E0002652F824C06644E4
:1023300002EB840CCCF8046050F8246053F824C0FD
:102340006E4351F82480F61DF60808FB06C603EB21
:10235000840CCCF8046051F8246050F824C006FBCB
:102360000CF66E4357F824C0F61D0CEBD60607EBAF
:10237000840C641CCCF80460072CC2D1BDE8F08F3B
:102380000C0E050810B5084CE06940F069FBE069E7
:1023900040F056FB51EC100BFFF767F92064BDE8E5
:1023A000104048F0A7BD0000E827002030B50546E2
:1023B000012406F059FE002809D1284615F0BCFC7E
:1023C000084951F8240018B1641C142CF9DB30BD05
:1023D00041F82450044806F097FA06F0EDF9034955
:1023E000886030BD304F01206006002018090020B1
:1023F00008B51CF0C9FA282804DDBDE808400FA084
:1024000019F094BF1348144990F82400C0EB001051
:1024100000EB800001EB800110486431FEF74AFFB9
:102420000E4902204FF4FA7281F820000020034682
:102430000146009053201FF0ADFE08BDE8BE93E6B4
:10244000B6B2E599A8E59381E7898CE5B7B2E6BB1A
:10245000A1000000B8410120B22206084454012026
:1024600008B51CF08BFA282804DDBDE808400FA051
:1024700019F05CBF114890F8240000EBC001C1EBDB
:1024800080100F4901EBC0010E483731FEF712FFF3
:102490000C4903204FF4FA7281F820000020034613
:1024A0000146009053201FF075FE08BDE88DAFE790
:1024B00089A9E5BA93E5B7B2E6BBA100B84101200E
:1024C0008E2806084454012070B5114E114D044663
:1024D00033685A689AB10CB911E01A461368002B98
:1024E000FBD11CF04BFA14603268401C10600AE00B
:1024F000C5F8D4000DF0C6F90DF050F905E05860AC
:102500001868401C18600029F2D1012070BD00003D
:1025100060310020F842012070B5134E0446134D7F
:10252000306842687AB10CB91BE01A461368002B78
:10253000FBD11CF029FA14603268401C106071B1A4
:10254000C5F8D00007E064B144600268521C026024
:1025500029B1C5F8D0200DF095F94BF05DFD0120B3
:1025600070BD002070BD00006C310020F8420120D9
:1025700003480178002901D0012141707047000013
:102580001809002003480179002901D00121417177
:1025900070470000180900200C4810B50021026A9D
:1025A000084608F0C3FF0A480A4990F8240000EBE7
:1025B000801000EB800001EB8001074801F5E1711C
:1025C000C06ABDE8104040F041BD0000B03D0120B0
:1025D000B84101202D8D0608143200200A4A1379D3
:1025E0002BB1002002F12C01107108600AE00128D3
:1025F00003D0022801D0032804D119B90120107199
:102600000020507101207047180900200649087900
:1026100038B1486A401E4862002801DC0020486248
:1026200070477420FBE700001809002038B5144CEF
:1026300012482062134890F8240000EB4001C1EBDF
:10264000C010114901EB400120463231FEF732FE45
:10265000032060620F489FED0D0B4FF4FA7280ED7E
:10266000020B9FED0D0B80ED000B00200346014691
:10267000009050201FF08EFD38BD0000B4430120B3
:10268000F4530120B841012094AA0508000000007D
:102690000000F03F905401200000000000001440B2
:1026A0000C4810B590F8B81001290DD0012180F820
:1026B000B81009A109480DF093FA3221BDE8104085
:1026C000064A092046F0A6B8002180F8B81004A1F7
:1026D000F0E70000F8420120E5BC800044520120F0
:1026E000E585B30070B51548154E164C817800F598
:1026F000807591B10021817000F00EFA96F82400E7
:1027000000EB801000EB800004EB8001286C01F2EC
:10271000E241BDE8704040F099BC0121817000F0B9
:10272000F5F996F8240000EB801000EB800004EB34
:10273000800101F59661286CEBE70000143200205F
:10274000B84101202D8D060810B501F09DFE054908
:1027500000200870012042F0D5FEBDE810400120A5
:102760001FF05ABCA41E0020054910B500200870B7
:10277000012042F0C7FEBDE8104001201FF04CBC14
:10278000A41E0020084908B500200870012042F06E
:10279000B9FE0120002300904FF4FA721946184642
:1027A0001FF0F8FC08BD0000A41E002010B5012099
:1027B00042F0A8FE034900200870BDE81040012047
:1027C0001FF02ABCA41E00200C4808B590F8240075
:1027D0000B49C0EB001000EB800001EB80010948C1
:1027E000FA31006846F004F80120002300904FF40D
:1027F000FA72194618461FF0CDFC08BDB8410120F9
:10280000D69F0508F023002010B508F0E9FEBDE8CA
:10281000104002201FF000BC10B508F0E1FEBDE83A
:10282000104002201FF0F8BB10B508F0D9FEBDE83B
:10283000104004201FF0F0BB01201FF0EDBB000092
:102840002DE9F047384D0024022128461DF042F9B9
:1028500000284FF0030002D043F0FAFC01E043F0FF
:10286000DDFCDFF8C8A0082150461DF033F9022135
:10287000A94628461DF02EF92D4F2E4D4FF0000889
:10288000012670B1786860B9082150461DF022F920
:1028900038B185F800806E70042043F0D9FC012423
:1028A0003EE0022148461DF015F930B1786820B9A4
:1028B000082150461DF00EF940B1022148461DF096
:1028C00009F988B17868012806D00DE02E7004203F
:1028D00043F0BEFC022423E0287828B12E700420A7
:1028E00043F09CFC03241BE0022148461DF0F2F853
:1028F000A8B9786898B9082150461DF0EBF870B176
:102900000D4885F80080007811284FF0040003D0AE
:1029100043F084FC042403E043F0B4FCFAE72E7097
:1029200006484476BDE8F0870010014000180140D9
:10293000680500204405002070050020B03D0120FE
:102940002DE9F041364F0024022138461DF0C2F82F
:1029500000284FF0030002D043F07AFC01E043F07E
:102960005DFC022138461DF0B5F8DFF8B8802E4D29
:10297000012670B1D5E9020188420AD108214046FA
:102980001DF0A8F828B12E70042043F061FC01244A
:102990003DE0022138461DF09DF840B1D5E9020125
:1029A000884204D1082140461DF094F880B128786F
:1029B000A0B1022138461DF08DF878B1D5E90201A9
:1029C00088420BD02E70042043F028FC03241EE024
:1029D0002E70042043F03CFC022418E0022138460B
:1029E0001DF078F898B9D5E9020188420FD1082185
:1029F00040461DF06FF850B1002028700B48007859
:102A000011284FF0040008D043F008FC04240848C3
:102A10004476A868E860BDE8F08143F033FCF5E750
:102A200000100140001801404405002070050020FE
:102A3000B03D012070B501251F4C012804D00228AB
:102A400002D0042816D013E043F000FB48B903205D
:102A500006F00AFB28B1032001F0A8FC002008F0D2
:102A6000DDFA0F2006F000FB10B10F2001F09EFCF4
:102A7000E56270BD114DE869032811DC012008F002
:102A8000CDFA0F2006F0F0FA10B10F2001F08EFC05
:102A90000B48407E08B108F0A3FD0320FFF786FC39
:102AA000E8691328E5DCE06A0128E2D10F20FFF78E
:102AB0007DFC0020E06270BDD8050020B03D012003
:102AC000283C012070B5104D0446E879844213D0AB
:102AD000052809D2DFE800F00808080305001020E7
:102AE00000E0122001F062FC052C05D2DFE804F0C2
:102AF000030303050700EC7170BD102000E01220F5
:102B0000FFF754FCF7E70000D80500200121014839
:102B100049F0D0BB001800400021014849F0CABB71
:102B20000018004010B5084C08482178012905D04C
:102B3000002149F0BFFB0120207010BD012149F0A8
:102B4000B9FB0020F8E70000400500200018004015
:102B500008B50120002300904FF4FA72194618209E
:102B60001FF018FB08BD0000134808B590F82400BA
:102B7000C0EB4011C1EB0020104901EB40011048AF
:102B80009631FEF797FB0E480E499FED0F0B016241
:102B9000152141620E484FF4FA7280ED000B9FED53
:102BA0000D0B80ED020B00200346014600905120E2
:102BB0001FF0F0FA08BD0000B8410120127D0508A1
:102BC0001C540120104F012000000000000049406B
:102BD00090540120000000000000E03F134808B5B9
:102BE00090F82400C0EB4011C1EB0020104901EB2C
:102BF000400110489631FEF75DFB0E480E494FF438
:102C0000FA720162152141620C4890ED0E0B0C48DE
:102C100080ED000B9FED0B0B80ED020B00200346B7
:102C20000146009051201FF0B5FA08BDB8410120BF
:102C300028BC05081C540120104F0120083F01202A
:102C400090540120000000000000E03F134808B548
:102C500090F82400C0EB4011C1EB0020104901EBBB
:102C6000400110484B31FEF725FB0E480E494FF44A
:102C7000FA720162142141620C4890ED000B0C487D
:102C800080ED000B9FED0B0B80ED020B0020034647
:102C90000146009051201FF07DFA08BDB841012087
:102CA000127D05081C540120084F0120E844012032
:102CB000905401209A9999999999B93F134808B568
:102CC00090F82400C0EB4011C1EB0020104901EB4B
:102CD000400110484B31FEF7EDFA0E480E494FF413
:102CE000FA720162142141620C4890ED000B0C480D
:102CF00080ED000B9FED0B0B80ED020B00200346D7
:102D00000146009051201FF045FA08BDB84101204E
:102D100028BC05081C540120084F0120E84401206C
:102D2000905401209A9999999999B93F57201FF089
:102D300023BA000010B5274C88B02046D4E91021F2
:102D4000531E806C994203D201F1010161640CE0D1
:102D500005D100F051F8606C401C60640DE0012367
:102D6000914204D1012902D06364002003E0914222
:102D700003D1012901D100F03FF8D4E9103216A1A6
:102D800068460CF02DFF6946E06B40F05FF9606C1F
:102D90006FF0050100EB400001EB40001BF028FB49
:102DA0000F49606840F052F90E49A06840F04EF9B2
:102DB0000D49E06840F04AF90C49206940F046F9B5
:102DC0000B49606940F042F90A49A06940F03EF9B8
:102DD00008B010BDC41E002025642F25640000002B
:102DE000E456012002570120205701203E570120C0
:102DF0005C5701207A57012010B5304C06285CD270
:102E0000DFE800F029030B131B230021A06840F02A
:102E10003EFE0021206A40F03AFE0021E06840F0CA
:102E200036FE0021606A40F032FE0021206940F049
:102E30002EFE0021A06A40F02AFE0021606940F0C9
:102E400026FE0021E06A40F022FE0021A06940F049
:102E50001EFE00212CE00121A06940F018FE012196
:102E6000606940F014FE0121206940F010FE01214C
:102E7000E06840F00CFE0121A06840F008FE01214E
:102E8000606840F004FE0121E06940F000FE01218D
:102E9000206A40F0FCFD0121606A40F0F8FD01214C
:102EA000A06A40F0F4FD0121E06A40F0F0FD01214C
:102EB000206BBDE8104040F0EABD10BDC41E0020EC
:102EC00010B5204C88B0616C481E012909D805D185
:102ED000A06CFFF791FF206C606406E0226C9142C9
:102EE00003D160640020FFF787FFD4E9103216A1F8
:102EF00068460CF075FE6946E06B40F0A7F8606C20
:102F00006FF0050100EB400001EB40001BF070FA90
:102F10000F49606840F09AF80E49A06840F096F8B2
:102F20000D49E06840F092F80C49206940F08EF8B5
:102F30000B49606940F08AF80A49A06940F086F8B8
:102F400008B010BDC41E002025642F2564000000B9
:102F5000E456012002570120205701203E5701204E
:102F60005C5701207A57012030B58DB0C068FEF75C
:102F7000AAF9424DC0B22870E96D4843801C1BF08D
:102F800027FA3F4991F8241041B1012909D00229BB
:102F90000AD003290BD004290CD00FE000210830FF
:102FA0000AE00021263007E00021443004E000213F
:102FB000623001E00021803047F002F91BF0E4FCB0
:102FC000841E062094FBF0F100FB114119B194FB23
:102FD000F0F1491C02E0ACB194FBF0F1A96594FB5F
:102FE000F0F100FB11402866D5E9163225A16846AC
:102FF0000CF0F6FD6946E86840F028F8E86D012815
:1030000003DC05E04FF00101E8E74FF0000001E0CC
:103010002FD1286E48F0E2F9E86D6FF0030100EB64
:10302000400001EB40001BF0E3F91849E86840F06C
:103030000DF81749286940F009F81649686940F009
:1030400005F81549A86940F001F81449E8693FF00E
:10305000FDFF1349286A3FF0F9FF12A22321686D92
:103060001FF0F8FB012C02DA01201EF0D5FF0DB095
:1030700030BDA96D8842C8D0CEE700005C34002086
:10308000B841012025642F2564000000E45601208A
:1030900002570120205701203E5701205C57012094
:1030A0007A5701203100000008B50120002300906C
:1030B0004FF4FA7219461A201FF06CF808BD072960
:1030C00003D000EB810082627047002100EB810396
:1030D000491CC9B29A620729F8D370472DE9F0411B
:1030E0001F4616460C00054603D150212046FEF728
:1030F000B4F8201D2A462021002512F8013B00F8D3
:10310000013B33B3491EF8D114F8240F20F00F000F
:10311000093020F0F000903020700920A07044F8B1
:10312000246C607867F301006070B04714F8011FE9
:1031300060F3830104F8251B074804F8025B01686B
:1031400044F84C190460BDE8F04107F00DBF00F8E9
:10315000015B491EFBD1D7E7681E002070B504460D
:103160000068804794F825100025C1F3810282424F
:1031700028D094F84A20521CD2B284F84A20022A5D
:1031800020D360F3830184F8251084F84A5094F822
:10319000240000F00F01092906D0022904D00207FB
:1031A00007D0032905D00DE020F00F0084F824009B
:1031B00008E020F00F00401C84F82400E16A09B107
:1031C0002046884794F8240010F00F0114D00129FC
:1031D0005FD002290FD194F84910491CC9B284F874
:1031E00049100F2907D320F00F00093020F0F0001C
:1031F000903084F8240070BD94F82510C1F381024A
:1032000001F003018A4244D13A4984F826500F263E
:10321000096803228C4294F84B1001F10101C9B2F4
:1032200084F84B101CD00F29E5D3B2EB101F0CD043
:1032300084F82620616B09B12046884784F84B50FA
:1032400014F8240F20F00F001CE0A16A09B12046F9
:10325000884794F84B00FF28CDD184F84B6070BDAF
:10326000C829FCD3B2EB101F10D084F82620616B64
:1032700009B12046884784F84B5014F8240F20F0F9
:103280000F00093020F0F000303031E0FF29E4D0A9
:1032900070BD94F8261021B10329F9D184F84B5060
:1032A000A1E794F849100F2912D80221B1EB101FA1
:1032B0000ED184F82610216B09B12046884714F8F6
:1032C000240F20F00F00093020F0F00090300FE0C4
:1032D00084F8495084F84B50A16A09B120468847C8
:1032E00014F8240F20F00F00801C20F0F000203094
:1032F000207070BD90050020054810B5046803E0FB
:103300002046FFF72BFFE46C002CF9D110BD000024
:10331000681E002010B50E4900242DED028BB0EE82
:10332000408AF0EE608A18B10868401C01240860E9
:103330000868FEF76EF953EC182BFEF7DBF904D89A
:103340001CB10120BDEC028B10BD0020FAE700008B
:103350001406002070B5504C2DED048BB0EE418A60
:10336000F0EE618A9FED4D9B9FED4E1B51EC100BD3
:1033700053EC112BFEF7CDF80E4605469FED4B0B97
:1033800051EC180B53EC102BFEF7B4F910D894ED58
:10339000020B51EC190B53EC102BFEF7BAF841EC71
:1033A000100B46EC115B53EC102B51EC110B0BE0A6
:1033B0009FED400B51EC180B53EC102BFEF79AF9D4
:1033C00009D894ED020B58E0FEF7A3F8BDEC048B8E
:1033D00041EC100B70BD9FED390B51EC180B53EC09
:1033E000102BFEF787F9ECD951EC180B9FED350B3C
:1033F00053EC102BFEF77EF9E3D951EC180B9FED3F
:10340000330B53EC102BFEF775F9DAD951EC180B8E
:103410009FED300B53EC102BFEF76CF9D1D951EC2A
:10342000180B9FED2E0B53EC102BFEF763F9C8D948
:1034300051EC180B9FED2B0B53EC102BFEF75AF9A8
:1034400019D951EC180B9FED290B53EC102BFEF7FB
:1034500051F910D951EC180B9FED260B53EC102BA2
:10346000FEF748F907D951EC180B9FED240B53ECEC
:10347000102BFEF73FF994ED000B51EC190B53ECB8
:10348000102BFEF746F841EC110B46EC105B53ECA9
:10349000112B51EC100B97E7A8060020000000004C
:1034A000000059400000000000807640000000004D
:1034B000000089400000000000E08540000000009E
:1034C00000C082400000000000407F40000000007B
:1034D000000079400000000000C0724000000000C1
:1034E00000006940000000000000494000000000AA
:1034F0000000394000000000000014409A9999999A
:103500009999B93F10B54A4C2DED048BB0EE408A25
:10351000F0EE608A9FED479B9FED480B51EC180B36
:1035200053EC102BFEF7E6F80CD894ED020B9FED50
:10353000451B51EC100B53EC112BFDF7D1FE41EC68
:10354000100B40E09FED410B51EC180B53EC102B8E
:10355000FEF7D0F835D951EC180B9FED3E0B53EC2C
:10356000102BFEF7C7F82CD951EC180B9FED3B0B35
:1035700053EC102BFEF7BEF823D951EC180B9FED3E
:10358000390B53EC102BFEF7B5F81AD951EC180B88
:103590009FED360B53EC102BFEF7ACF811D951EC24
:1035A000180B9FED340B53EC102BFEF7A3F808D942
:1035B00051EC180B9FED310B53EC102BFEF79AF8E2
:1035C00010D894ED020B51EC190B53EC102BFDF7B6
:1035D000A0FF53EC182BFDF72AFFBDEC048B41EC48
:1035E000100B10BD9FED270B51EC180B53EC102B5B
:1035F000FEF780F819D951EC180B9FED240B53EC12
:10360000102BFEF777F810D951EC180B9FED210B1A
:1036100053EC102BFEF76EF807D951EC180B9FED09
:103620001F0B53EC102BFEF765F894ED000BCAE767
:10363000A806002000000000000059400000000023
:1036400000509440666666666666D63F00000000DD
:10365000000089400000000000E0854000000000FC
:1036600000C082400000000000407F4000000000D9
:10367000000079400000000000C07240000000001F
:103680000000694000000000000049400000000008
:103690000000394000000000000014409A999999F8
:1036A0009999B93F30B505462DED028B87B053ECA3
:1036B000112B51EC100BFDF72CFF41EC180BFDF713
:1036C000B5FF9FED1B0B039053EC102B51EC180B27
:1036D000FDF7ADFEFDF7AAFF3C2490FBF4F104FBDF
:1036E00011009FED150B049053EC102B51EC180BAF
:1036F000FDF79DFEFDF79AFF90FBF4F104FB11002E
:10370000059003990020002900DC0390049900290A
:1037100000DC04900599002900DC05901822694618
:103720002846FDF772FD07B0BDEC028B30BD0000EE
:103730000000000000004E40000000000020AC40EF
:1037400038B5144C12482062134890F8240000EB5E
:103750004001C1EBC010114901EB4001204632315C
:10376000FDF7A8FD0B2060620F489FED0D0B4FF495
:10377000FA7280ED020B9FED0D0B80ED000B002027
:1037800003460146009051201EF004FD38BD0000A4
:10379000984301201C540120B8410120B2A505081E
:1037A0009A9999999999B93F905401200000000085
:1037B000000014400B4810B5817A19B100218172C4
:1037C00009A102E00121817208A109480CF008FA60
:1037D000074A3821092045F01DF8BDE810400CF0DB
:1037E000E1B80000E8440120E585B300E5BC8000B5
:1037F0001C550120124808B590F8240000EB400148
:10380000C1EBC0100F4901EB40010F48FDF752FD1D
:103810000D480E499FED0E0B0162052141620E48D5
:103820004FF4FA7280ED000B9FED0C0B80ED020B54
:10383000002003460146009051201EF0ABFC08BD5D
:10384000B8410120254606081C540120783E01207D
:103850000000000000C07240905401207B14AE476D
:10386000E17A843F30B52B4C2DED028B81B094ED85
:10387000060B94ED001B53EC102B51EC110BFDF7D4
:10388000D6FD41EC180B244894ED021B90ED000B83
:1038900053EC112B51EC100BFDF7C9FD53EC182B19
:1038A000FDF737FE0D46044604F0ECFF00282CD14E
:1038B0001A48D0F8BC0007F0A9FB05F015F801285C
:1038C00023D0174840F2131190F8240010FB01F0A8
:1038D000144901EB400114486431FDF7EBFC134837
:1038E0009FED130B4FF4FA7201690F480162122128
:1038F0004162114880ED020BC0E9004500200346FB
:103900000146009051201EF045FC01B0BDEC028B39
:1039100030BD0000783E0120E8440120F84201203B
:10392000B8410120074B06081C5401203C550120DA
:103930009A9999999999B93F90540120124808B5DC
:1039400090F82400AF2110FB01F0104901EB400179
:103950000F483231FDF7AEFC0D480E499FED0E0BBE
:103960000162082141620E484FF4FA7280ED000BAB
:103970009FED0C0B80ED020B0020034601460090EA
:1039800051201EF007FC08BDB8410120C5550608AE
:103990001C540120983E012033333333333F8F4092
:1039A000905401207B14AE47E17A843F164808B555
:1039B000D0F8C40007F044FB0E2000F0F7FC1348D9
:1039C000AF2190F8240010FB01F0114901EB4001F8
:1039D00010483231FDF76EFC0E480F499FED0F0B7A
:1039E0000162012141620F484FF4967280ED000B95
:1039F0009FED0D0B80ED020B002003460146009069
:103A000050201EF0C7FB08BDF8420120B84101203C
:103A10003C760508F45301203841012000000000E5
:103A200000A0604090540120000000000000F03F22
:103A300008B504F027FF00282ED11848D0F8BC00A4
:103A400007F0E4FA04F050FF012825D0144890F85C
:103A50002400C0EB4011C1EB0020124901EB4001F2
:103A600011486431FDF726FC10489FED110B4FF40F
:103A7000FA7241680C480162122141620E4880EDE1
:103A8000000B9FED0E0B80ED020B0020034601465C
:103A9000009050201EF07EFB08BD0000F84201207F
:103AA000B841012094670608F453012070550120A5
:103AB0000000000000A060409054012000000000C1
:103AC0000000F03F134808B590F8240000EBC00157
:103AD00001EB0010104901EBC00110483231FDF735
:103AE000E9FB0E480E499FED0F0B01620221416276
:103AF0000E484FF4FA7280ED000B9FED0D0B80ED38
:103B0000020B002003460146009050201EF042FBAD
:103B100008BD0000B8410120227A0608F4530120B4
:103B2000504101200000000000004E409054012050
:103B30000000000000002440134808B590F824005D
:103B400000EB4001C1EBC010104901EB40011048EF
:103B50006431FDF7AFFB0E480E499FED0F0B01627C
:103B6000072141620E484FF4FA7280ED000B9FED81
:103B70000D0B80ED020B0020034601460090512002
:103B80001EF008FB08BD0000B841012025460608CC
:103B90001C540120903E012033333333F387C3405C
:103BA000905401207B14AE47E17A843F124808B557
:103BB00090F82400114900EB800001EB80111048BF
:103BC0005031FDF777FB0E480E499FED0F0B016258
:103BD0000F494FF4FA7281ED000B9FED0E0B81ED52
:103BE000020B18214162002003460146009051203B
:103BF0001EF0D0FA08BD0000B8410120E800060818
:103C00001C540120602B002033333333F387C3402F
:103C1000905401207B14AE47E17A843F124808B5E6
:103C200090F82400114900EB800001EB801110484E
:103C3000A031FDF73FFB0E480E499FED0F0B0162CF
:103C40000F494FF4FA7281ED000B9FED0E0B81EDE1
:103C5000020B1921416200200346014600905120C9
:103C60001EF098FA08BD0000B8410120E8000608DF
:103C70001C540120682B002033333333F387C340B7
:103C8000905401207B14AE47E17A843F38B5134C41
:103C900011482062124890F8240000EB4001C1EB6B
:103CA000C010104901EB40012046FDF703FB10480E
:103CB0009FED0D0B4FF4FA7280ED000B9FED0D0B95
:103CC00080ED020B13206062002003460146009045
:103CD00051201EF05FFA38BDE84401201C54012039
:103CE000B8410120181206080000000000409F4063
:103CF000905401207B14AE47E17A843F134808B505
:103D000090F8240000EB4001C1EBC010104901EB1A
:103D1000400110483231FDF7CDFA0E480E499FEDB3
:103D20000F0B0162062141620E484FF4FA7280EDDA
:103D3000000B9FED0D0B80ED020B002003460146AA
:103D4000009051201EF026FA08BD0000B841012065
:103D5000254606081C540120803E012033333333AE
:103D6000333F8F40905401207B14AE47E17A843F6B
:103D7000164808B5D0F8C40007F062F90E2000F02C
:103D800015FB1348AF2190F8240010FB01F01149F6
:103D900001EB400110489631FDF78CFA0E480F49AF
:103DA0009FED0F0B01620A2141620F484FF496729A
:103DB00080ED000B9FED0D0B80ED020B0020034604
:103DC0000146009051201EF0E5F908BDF84201209F
:103DD000B84101203C7605081C54012048410120CF
:103DE00033333333F387C340905401207B14AE4701
:103DF000E17A843F08B5C068FDF765FA1749087095
:103E00001748D0F8C40007F01BF90E2000F0CEFAD6
:103E10001448154990F82400C0EB001000EB800016
:103E200001EB800111486431FDF744FA0F48104955
:103E30009FED100B016211494FF4FA7281ED000BF6
:103E40009FED0F0B81ED020B17214162002003460D
:103E50000146009051201EF09DF908BD6827002002
:103E6000F8420120B8410120B6CE05081C540120BB
:103E7000383F012033333333F387C340905401205C
:103E80007B14AE47E17A843F174808B5D0F8C400E8
:103E900007F0D6F80E2000F089FA1448144990F87B
:103EA0002400C0EB001000EB800001EB8001114802
:103EB0006431FDF7FFF90F480F499FED100B0162C8
:103EC00010494FF4FA7281ED000B9FED0F0B81ED5D
:103ED000020B04214162002003460146009051205C
:103EE0001EF058F908BD0000F8420120B841012039
:103EF00030DC05081C540120E03D0120333333330E
:103F0000F387C340905401207B14AE47E17A843F8D
:103F1000174808B5D0F8C40007F092F80E2000F05A
:103F200045FA1448144990F82400C0EB001000EB47
:103F3000800001EB800111483231FDF7BBF90F48D9
:103F40000F499FED100B016210494FF4FA7281ED99
:103F5000000B9FED0F0B81ED020B0221416200204F
:103F600003460146009051201EF014F908BD0000E0
:103F7000F8420120B8410120ACF105081C54012091
:103F8000303E012033333333F387C3409054012054
:103F90007B14AE47E17A843F38B5144C124815497A
:103FA0002062134890F82400C0EB001000EB800062
:103FB00001EB400120463231FDF77CF910206062B0
:103FC0000F489FED0D0B0F4980ED020B4FF4FA7275
:103FD00091ED000B80ED000B0020034601460090A0
:103FE00051201EF0D7F838BD280600201C540120AF
:103FF000B84101206AB105089A9999999999B93FF0
:1040000090540120E84401200E4808B590F824009F
:104010000D49C0EB001000EB800001EB80010B4864
:10402000C831FDF747F9094901204FF4FA7281F8C8
:104030002000002003460146009053201EF0AAF8FD
:1040400008BD0000B8410120023706084454012091
:1040500008B504F017FC00282FD11848D0F8BC0090
:1040600006F0D4FF04F040FC012826D0144890F854
:104070002400C0EB4011C1EB0020124901EB4001CC
:1040800011486431FDF716F90F4814214FF4FA7204
:1040900041620E49496801620D4890ED000B0D48E0
:1040A00080ED000B9FED0C0B80ED020B0020034612
:1040B0000146009051201EF06DF808BDF842012025
:1040C000B84101205E7006081C540120A055012053
:1040D000E8440120905401207B14AE47E17A843FEC
:1040E000114808B5D0F8C40006F0AAFF0E2000F071
:1040F0005DF90E480E4990F82400C0EB001000EB6B
:10410000800001EB80010B48FDF7D4F809490A480B
:104110004FF4FA72086200200346014600905220D4
:104120001EF038F808BD0000F8420120B841012017
:10413000ACF1050868540120383E01200C4808B550
:1041400090F824000B4900EB801000EB4000014484
:104150000948FDF7AFF8084908484FF4FA720862B9
:10416000002003460146009052201EF013F808BDBF
:10417000B84101208CC5060868540120D4430120B1
:10418000124808B590F82400AF2110FB01F0104947
:1041900001EB40010F486431FDF78CF80D480E49E2
:1041A0009FED0E0B0162092141620E484FF4FA7235
:1041B00080ED000B9FED0C0B80ED020B0020034601
:1041C0000146009051201DF0E5FF08BDB8410120D7
:1041D000C55506081C540120A83E01203333333353
:1041E000F387C340905401207B14AE47E17A843FAB
:1041F00010B5C068FDF767F81E49C0B2496C484366
:104200001AF0E6F81C4990ED280B81ED000B90EDBB
:104210002A0B81ED020BD0F8B0200A61D0F8B4204F
:104220004A61D0F8B8208A61D0F8BC20CA6190ED0C
:10423000300B81ED080B90ED320B81ED0A0B90ED08
:10424000340B81ED0C0B1AF055FF01460B48044668
:10425000FDF730F822460AA10A480BF0C1FC094AD2
:104260005921092044F0D6FABDE8104001201DF084
:10427000D3BE0000C41E0020A80600208A0600202D
:10428000257300009C51012038B5C068FDF71BF86C
:10429000214DC0B2E96C484368651AF099F81F498E
:1042A00090ED280B81ED000B90ED2A0B81ED020BB8
:1042B000D0F8B0200A61D0F8B4204A61D0F8B82014
:1042C0008A61D0F8BC20CA6190ED300B81ED080BFB
:1042D00090ED320B81ED0A0B90ED340B81ED0C0B60
:1042E0002868012806D0022806D0032806D0042812
:1042F00006D006E0322404E0362402E03D2400E04B
:1043000037240120002300904FF4FA72194620B29E
:104310001DF040FF38BD0000101F0020A80600203F
:1043200010B5C068FCF7CFFF1949C0B2896B48438C
:1043300019F0CCFF1AF0C4FE01461648FCF7BAFF8C
:10434000602044F03EFA18B113A22421134816E06D
:10435000612044F036FA18B10FA2242110480EE073
:10436000622044F02EFA18B10BA224210D4806E079
:10437000632044F026FA28B10B4807A224210068E4
:104380001EF068FABDE8104001201DF045BE000097
:10439000302C00206C06002036363600B430002069
:1043A000E02D0020302800200030002010B5044609
:1043B000012304F059FE00280AD0204600F010F82E
:1043C000064951F82300A04203D1002041F8230000
:1043D00010BD5B1C142BF4DB10BD0000304F01201E
:1043E000012210490B2804DA824048699043486151
:1043F00070470D2805DA0B38824088699043886140
:104400007047132805DA0D388240C8699043C861A7
:1044100070471428FCDA13388240086A9043086217
:104420007047000018090020064A01200021516150
:104430009161D1611162044A42F82010401C142895
:10444000FADB704718090020304F012010B5012415
:104450002046FFF7ABFF641C0B2CF9DB10BD10B539
:104460000E242046FFF7A2FF641C132CF9DB10BDBD
:1044700004489FED020B80ED120B70470000000016
:1044800000000000D80500207047000030B5294D1D
:104490002DED028B93B068683EF028FA0BF0D4FB48
:1044A000B0EE408AF0EE608A182223496846FCF795
:1044B000ACFE214CB0EE480A103CF0EE680A94E8DD
:1044C0000F0004F00DFE022820D01C4C1CA106A8F1
:1044D000626A0BF085FB68683EF008FA0BF0B4FBEB
:1044E000206A80ED000B3FF09AFF06AA24211EF0FF
:1044F000B1F9144900200870012041F003F80120AF
:104500001DF08AFD13B0BDEC028B30BD94ED000BA5
:104510000DA18DED000B94ED020B06A853EC102BB2
:104520000BF05EFB034806A9803840683EF08EFD24
:10453000E8E70000BC210020A05401201C54012009
:1045400025640000A41E0020E8B685E999902C257A
:104550002E32667E252E32660000000070B5344C87
:104560009AB060683EF0C2F9FCF7ADFE314D296AA1
:10457000086060683EF0BAF9FCF7A5FE0446282200
:104580002D4910A8FCF741FE002C1BDB2046FDF74F
:104590002FF80E4646EC100B9DED121B044653EC13
:1045A000112B51EC100BFDF7A5F82BD846EC104B56
:1045B0009DED101B51EC100B53EC112BFDF782F805
:1045C00020D802E09DF86000E0B1002002281BD056
:1045D0001DF006FB002813D018A102A86A6A0BF090
:1045E000FFFA3FF01CFF02AA24211EF033F9144900
:1045F00000200870012040F085FF01201DF00CFD17
:104600001AB070BD0220E1E70B480EA190ED000B3F
:104610008DED000B90ED020B02A853EC102B0BF06C
:10462000DFFA034802A9803840683EF00FFDE7E753
:1046300044220020F45301209054012025640000FE
:10464000A41E0020E8B685E999902C252E32667EBE
:10465000252E3266000000002DE9F843224C6068E8
:104660003EF044F9FCF72FFEA268204D204E0021B9
:10467000A4F18007042A0CD11E4AA0F508534FF07C
:1046800001084FF4FA79B83B14D0A0F5D0531E3B83
:104690001BD0A160002160683EF0B6FB95F82400B5
:1046A00000EB800006EB00117868BDE8F843283184
:1046B0003EF0CCBC1170012040F024FF00234A469C
:1046C00019462920CDF8008009E01170012040F042
:1046D00019FF00234A4619462E20CDF800801DF010
:1046E00059FDBDE8F8830000CC220020B84101202C
:1046F0009A900508A41E00202DE9F8432F2044F0CD
:1047000060F8384E384D394F4FF00108002418B189
:1047100097F82000012818D02B2044F052F818B147
:1047200097F8200002282AD02C2044F04AF818B12B
:1047300097F8200003283DD02C70012040F0E2FEC5
:10474000BDE8F84301201DF067BC706B3EF0CEF869
:1047500001462748FCF7AEFD274826A22421006821
:104760001EF078F82C70012040F0CCFE0BF024F9FC
:1047700000231A4619462F20CDF8008016E0706BF2
:104780003EF0B4F801461D48FCF794FD1D481CA2FC
:10479000242100681EF05EF82C70012040F0B2FE6B
:1047A00000231A4619462B20CDF800801DF0F2FC9C
:1047B000BDE8F883706B3EF099F801461248FCF7AB
:1047C00079FD134811A2242100681EF043F82C70D3
:1047D000012040F097FE00231A4619462C20CDF800
:1047E0000080E3E7D8220020A41E002044540120CA
:1047F0003042012031000000402D0020C65601202B
:1048000032000000BC2C0020CC55012033000000F9
:10481000E82C00200D4810B5006A18220C49FCF75E
:10482000F4FC3FF0FCFD0BA224211EF013F80A4912
:1048300001200870094900200870012040F062FE44
:10484000BDE8104001201DF0E7BB000068540120C6
:10485000FC5101203100000084230020A41E002010
:1048600008B518220B490C48FCF7CFFC09490A4847
:10487000182218311830FCF7C8FC0BF09DF8012005
:10488000002300904FF4FA7219461F201DF082FC9D
:1048900008BD000014520120E441012010B50B486E
:1048A0000B4C88B0008824F8A80F0AF0EBFF228890
:1048B00008A168460BF094F96A462721062043F0C8
:1048C000A9FF01201DF0A8FB08B010BD3C26002068
:1048D000F84201202573000008B50BF06DF80120A7
:1048E000002300904FF4FA7219462D201DF052FC5F
:1048F00008BD00000A4908B50A4891ED100B80ED8B
:10490000000B91ED120B80ED020B49F09DFB012095
:10491000002300901A46194635201DF03BFC08BDC7
:10492000202B0020A806002038B5124C0125606A13
:10493000012818D0022815D10F48006819F048FD49
:104940000E4894ED0A0B80ED000B94ED0C0B80EDFE
:10495000020B49F079FB00231A46194635200095D1
:104960001DF018FC38BD00231A4619463220009568
:10497000F6E70000702B0020641F0020A80600202E
:1049800010B50F4C0921E0681EF08EFB62690D49DD
:10499000904201D100200DE0A269904201D1022095
:1049A00008E0E269904201D1032003E022699042CD
:1049B00001D101200874BDE8104001201DF02CBB7E
:1049C000702C0020783E012010B59AB001211148CA
:1049D00017F03AF914F09EF90F4C0021A0683FF04F
:1049E00056F80021E0683FF052F80C4840F2DB1125
:1049F00090F8240010FB01F00949421809A168460B
:104A000002F5BE720BF0ECF8694660683EF01EFBE2
:104A10001AB010BD1B001C00782D0020B8410120E9
:104A2000DE3C06082573000008B501200023009035
:104A30004FF4FA72194637201DF0ACFB08BD000098
:104A4000124810B51249C2690A61026A4A61426A93
:104A50008A61826ACA6190ED0C0B81ED080B90EDC2
:104A60000E0B81ED0A0B90ED100B81ED0C0B49F054
:104A7000EBFA06F0B5FD362043F0A3FE08B10320A3
:104A800000E00220BDE810401DF0C6BA902F0020C3
:104A9000A806002008B501210022084643F0BAFE0E
:104AA00000200346014600904FF4FA7241201DF0A9
:104AB00071FB08BD2DE9F0419A4C60683FF0B8FAEF
:104AC00041224621A0603EF056FF32229621A06886
:104AD0003EF0A3FF6821A0683EF03DFF0021A068E2
:104AE0003FF020FB6FF07F4528461CF040F901465F
:104AF000A0683FF0CDFA8C4E30461CF038F90146E4
:104B0000A0683FF0EAFA0121A0683FF0F9FA042119
:104B1000A0683FF0D0FA85A301228549A0683EF045
:104B20004DFB60683FF084FA412297003946E0600F
:104B30003EF021FF32229621E0683EF06EFF6621B2
:104B4000E0683EF008FF0021E0683FF0EBFA2846FD
:104B50001CF00DF90146E0683FF09AFA30461CF06F
:104B600006F90146E0683FF0B8FA0121E0683FF03D
:104B7000C7FA0421E0683FF09EFA6EA301226C4957
:104B8000E0683EF01BFB60683FF052FA8C22462141
:104B900020613EF0F0FE3222962120693EF03DFF7A
:104BA000682120693EF0D7FE002120693FF0BAFA63
:104BB00028461CF0DCF8014620693FF069FA3046CF
:104BC0001CF0D5F8014620693FF087FA01212069E1
:104BD0003FF096FA042120693FF06DFA56A30122B6
:104BE000534920693EF0EAFAA0683EF05DF941229F
:104BF000462160613EF0BFFE3222962160693EF0A0
:104C00000CFF28461CF0B3F8014660693EF0ADF990
:104C1000182160693EF0F4F9142160693EF0B9F999
:104C2000212160693EF0C0F9322160693EF0C7F988
:104C3000082160693EF087F940A160693EF006FAFC
:104C4000012160693EF080FE012160693EF004FEB2
:104C5000E0683EF029F941223946A0613EF08BFE22
:104C600032229621A0693EF0D8FE28461CF07FF83B
:104C70000146A0693EF079F91821A0693EF0C0F91B
:104C80001421A0693EF085F92121A0693EF08CF93C
:104C90003221A0693EF093F90821A0693EF053F952
:104CA00027A1A0693EF0D2F90121A0693EF04CFE97
:104CB0000121A0693EF0D0FD20693EF0F5F88C227C
:104CC0004621E0613EF057FE32229621E0693EF037
:104CD000A4FE28461CF04BF80146E0693EF045F979
:104CE0001821E0693EF08CF91421E0693EF051F999
:104CF0002121E0693EF058F93221E0693EF05FF988
:104D00000821E0693EF01FF90EA1E0693EF09EF92E
:104D10000121E0693EF018FEE069BDE8F0410121A3
:104D20003EF09ABD6425002099887700310000008C
:104D3000F1A70008320000003300000033303000DB
:104D400035323500393030002DE9F0432DED028B3E
:104D500081B040F267186FF07F479FEDFD8BFE4CEE
:104D6000FE4D04F18009A0683EF09EF86422002107
:104D700060633EF000FE23222821606B3EF04DFE72
:104D800038461CF095F80146606B3EF0EEF81821AD
:104D9000606B3EF035F92121606B3EF005F914217E
:104DA000606B3EF0F6F83221606B3EF008F90121AD
:104DB000606B3EF0C8F8EAA1606B3EF047F9A0686E
:104DC0003EF072F864223821A0633EF0D4FD232225
:104DD0007821A06B3EF021FE38461CF069F80146B0
:104DE000A06B3EF0C2F81821A06B3EF009F921211A
:104DF000A06B3EF0D9F81421A06B3EF0CAF8322126
:104E0000A06B3EF0DCF80821A06B3EF09CF895ED1D
:104E1000020B53EC182B51EC100BFCF753FC10D089
:104E200095ED020B51EC100BFCF77CFCFCF736FC0B
:104E300041EC100BCBA153EC102BCC480AF0D0FE68
:104E400003E0CBA1C9480AF0CBFEC849A06B3EF0F5
:104E5000FDF8C8A30122C849A06B3EF0AFF9A068D5
:104E60003EF022F86422D021E0633EF084FD23224C
:104E70007821E06B3EF0D1FD38461CF019F8014670
:104E8000E06B3EF072F81821E06B3EF0B9F821219A
:104E9000E06B3EF089F81421E06B3EF07AF83221A5
:104EA000E06B3EF08CF80821E06B3EF04CF895ED9D
:104EB0000E0B53EC182B51EC100BFCF703FC10D02D
:104EC00095ED0E0B51EC100BFCF72CFCFCF7E6FB00
:104ED00041EC100BA3A153EC102BA4480AF080FE68
:104EE00003E0A3A1A1480AF07BFEA049E06B3EF0DD
:104EF000ADF8A0A30122A149E06B3EF05FF9A068E4
:104F00003DF0D2FF6422414620643EF034FD23226E
:104F10007821206C3EF081FD38461BF0C9FF014628
:104F2000206C3EF022F81821206C3EF069F8212117
:104F3000206C3EF039F81421206C3EF02AF8322122
:104F4000206C3EF03CF80821206C3DF0FCFF95ED14
:104F50000E0B53EC182B51EC100BFCF7B3FB09D0E4
:104F6000D5F88C000090D5E9212385A17F480AF06F
:104F700037FE03E086A17D480AF032FE7B49206CB3
:104F80003EF064F8A0683DF08FFF9122002160643C
:104F90003EF0F1FC23222821606C3EF03EFD3846B5
:104FA0001BF086FF0146606C3DF0DFFF1821606C4E
:104FB0003EF026F82121606C3DF0F6FF1421606C74
:104FC0003DF0E7FF3221606C3DF0F9FF0121606C9C
:104FD0003DF0B9FF71A1606C3EF038F8A0683DF07B
:104FE00063FF91223821A0643EF0C5FC2322782182
:104FF000A06C3EF012FD38461BF05AFF0146A06C33
:105000003DF0B3FF1821A06C3DF0FAFF2121A06C08
:105010003DF0CAFF1421A06C3DF0BBFF3221A06C13
:105020003DF0CDFF0821A06C3DF08DFF95ED040B08
:1050300053EC182B51EC100BFCF744FB10D095ED02
:10504000040B51EC100BFCF76DFBFCF727FB41EC5C
:10505000100B44A153EC102B44480AF0C1FD03E0AF
:1050600043A142480AF0BCFD40492646A06C3DF0F1
:10507000EDFF4BA301224049B06C3EF09FF8B068B1
:105080003DF012FF9122D021F0643EF074FC232207
:105090007821F06C3EF0C1FC38461BF009FF014658
:1050A000F06C3DF062FF1821F06C3DF0A9FF21216A
:1050B000F06C3DF079FF1421F06C3DF06AFF322175
:1050C000F06C3DF07CFF0821F06C3DF03CFF95ED6D
:1050D000100B53EC182B51EC100BFCF7F3FA10D01B
:1050E00095ED100B51EC100BFCF71CFBFCF7D6FAFE
:1050F00041EC100B1BA153EC102B1C480AF070FD67
:1051000003E01BA119480AF06BFD1849F06C3DF053
:105110009DFF23A301221949F06C3EF04FF8B068BF
:105120003DF0C2FE9122414630653EF024FC232230
:105130007821306D3EF071FC38461BF0B9FE014617
:10514000306D3DF012FF1821306D3DF059FF29E020
:10515000000000000000000068270020083F012038
:1051600053310000252E326600000000E05201207D
:105170002D2D000031000000E5B20008F53D0008CB
:10518000253032643A253032643A253032640000EA
:105190002D2D3A2D2D3A2D2D000000005332000008
:1051A000320000002121306D3DF0FEFE1421306DF3
:1051B0003DF0EFFE3221306D3DF001FF0821306DF2
:1051C0003DF0C1FE95ED100B53EC182B51EC100B7C
:1051D000FCF778FA0AD0D5F8A4000090D5E9272387
:1051E000AFF26401FE480AF0FBFC04E0AFF260019C
:1051F000FB480AF0F5FCFA49306D3DF027FFB06836
:105200003DF052FEBE22002170653EF0B4FB232229
:105210002821706D3EF001FC38461BF049FE014626
:10522000706D3DF0A2FE1821706D3DF0E9FE212168
:10523000706D3DF0B9FE1421706D3DF0AAFE322173
:10524000706D3DF0BCFE0121706D3DF07CFEE5A16E
:10525000706D3DF0FBFEB0683DF026FEBE223821A9
:10526000B0653EF088FB23227821B06D3EF0D5FB7F
:1052700038461BF01DFE0146B06D3DF076FE18214C
:10528000B06D3DF0BDFE2121B06D3DF08DFE1421CD
:10529000B06D3DF07EFE3221B06D3DF090FE0821F4
:1052A000B06D3DF050FE95ED060B53EC182B51EC14
:1052B000100BFCF707FA11D095ED060B51EC100B13
:1052C000FCF730FAFCF7EAF941EC100B53EC102B29
:1052D000AFF27011C2480AF083FC04E0AFF2701123
:1052E000BF480AF07DFCBE49B06D3DF0AFFEBEA3E5
:1052F0000122BE49B06D3DF061FFB0683DF0D4FDC4
:10530000BE22D021F0653EF036FB23227821F06DDD
:105310003EF083FB38461BF0CBFD0146F06D3DF0BF
:1053200024FE1821F06D3DF06BFE2121F06D3DF063
:105330003BFE1421F06D3DF02CFE3221F06D3DF06E
:105340003EFE0821F06D3DF0FEFD95ED120B53EC95
:10535000182B51EC100BFCF7B5F911D095ED120B91
:1053600051EC100BFCF7DEF9FCF798F941EC100B4F
:1053700053EC102BAFF2142199480AF031FC04E0F1
:10538000AFF2142196480AF02BFC9549F06D3DF0E0
:105390005DFE95A301229649F06D3DF00FFFB068C8
:1053A0003DF082FDBE22414630663EF0E4FA232203
:1053B0007821306E3EF031FB38461BF079FD014616
:1053C000306E3DF0D2FD1821306E3DF019FE2121E6
:1053D000306E3DF0E9FD1421306E3DF0DAFD3221F2
:1053E000306E3DF0ECFD0821306E3DF0ACFD95EDEA
:1053F000120B53EC182B51EC100BFCF763F90AD08D
:10540000D5F8BC000090D5E92D23AFF28C2174486B
:105410000AF0E6FB04E0AFF2882171480AF0E0FBF5
:105420006F49306E3DF012FEB0683DF03DFD4C46D8
:10543000BE220021C9F810003EF09DFA2322282147
:1054400020693EF0EAFA38461BF032FD0146206939
:105450003DF08BFD182120693DF0D2FD212120690E
:105460003DF0A2FD142120693DF093FD3221206919
:105470003DF0A5FD082120693DF065FD5DA1206995
:105480003DF0E4FDB0683DF00FFDBE22D02160612B
:105490003EF071FA2322782160693EF0BEFA384668
:1054A0001BF006FD014660693DF05FFD1821606953
:1054B0003DF0A6FD212160693DF076FD1421606973
:1054C0003DF067FD322160693DF079FD082160699A
:1054D0003DF039FD95ED3C0B53EC182B51EC100BC6
:1054E000FCF7F0F811D095ED3C0B51EC100BFCF7EC
:1054F00019F9FCF7D3F841EC100B53EC102BAFF279
:105500009C3137480AF06CFB04E0AFF29C31344820
:105510000AF066FB324960693DF098FDB0683DF0E5
:10552000C3FCBE224146A0613EF025FA2322782129
:10553000A0693EF072FA38461BF0BAFC0146A06939
:105540003DF013FD1821A0693DF05AFD2121A0690D
:105550003DF02AFD1421A0693DF01BFD3221A06918
:105560003DF02DFD0821A0693DF0EDFC95ED3C0BD3
:1055700053EC182B51EC100BFCF7A4F80AD0D5F81B
:105580000C01AFF204410090D5E9412314480AF020
:1055900027FB04E0AFF2084111480AF021FB104953
:1055A000A0693DF053FDB0681DF0A2FD4FF4877275
:1055B0004FF4D77160633EF0DEF932221146606B22
:1055C0003EF02BFA0CA1606B1DF052FE606B01B037
:1055D0000023BDEC028B0122BDE8F043104921E01D
:1055E000E05201205333000033000000E5B2000810
:1055F000F53D0008E2889100663A696D675F3635CF
:105600007836355F6172726F775F636972636C655C
:105610005F646F776E5F325F31362E706E670000A9
:10562000BDA500083DF0CABD2DE9F0432DED028B6C
:1056300081B040F267146FF07F479FEDFD8BFE4E07
:10564000FE4D06F18009F0683DF02EFC6422002139
:1056500070663EF090F923222821706E3EF0DDF94D
:1056600038461BF025FC0146706E3DF07EFC18218B
:10567000706E3DF0C5FC2121706E3DF095FC14214B
:10568000706E3DF086FC3221706E3DF098FC012179
:10569000706E3DF058FCEAA1706E3DF0D7FCF068EA
:1056A0003DF002FC64223821B0663EF064F923220A
:1056B0007821B06E3EF0B1F938461BF0F9FB014697
:1056C000B06E3DF052FC1821B06E3DF099FC2121E6
:1056D000B06E3DF069FC1421B06E3DF05AFC3221F1
:1056E000B06E3DF06CFC0821B06E3DF02CFC95EDE9
:1056F000080B53EC182B51EC100BFBF7E3FF10D009
:1057000095ED080B51EC100BFCF70CF8FBF7C6FFFE
:1057100041EC100BCBA153EC102BCC480AF060FAF3
:1057200003E0CBA1C9480AF05BFAC849B06E3DF06E
:105730008DFCC8A30122C849B06E3DF03FFDF06862
:105740003DF0B2FB6422D021F0663EF014F9232232
:105750007821F06E3EF061F938461BF0A9FB014656
:10576000F06E3DF002FC1821F06E3DF049FC212165
:10577000F06E3DF019FC1421F06E3DF00AFC322170
:10578000F06E3DF01CFC0821F06E3DF0DCFB95ED69
:10579000140B53EC182B51EC100BFBF793FF10D0AC
:1057A00095ED140B51EC100BFBF7BCFFFBF776FFEC
:1057B00041EC100BA3A153EC102BA4480AF010FAF3
:1057C00003E0A3A1A1480AF00BFAA049F06E3DF056
:1057D0003DFCA0A30122A149F06E3DF0EFFCF06872
:1057E0003DF062FB6422A046214630673EF0C3F8DC
:1057F00023227821306F3EF010F938461BF058FB19
:105800000146306F3DF0B1FB1821306F3DF0F8FBE1
:105810002121306F3DF0C8FB1421306F3DF0B9FB02
:105820003221306F3DF0CBFB0821306F3DF08BFB18
:1058300095ED140B53EC182B51EC100BFBF742FFBA
:1058400009D0D5F8D4000090D5E9332384A17F484E
:105850000AF0C6F903E086A17C480AF0C1F97B4949
:10586000306F3DF0F3FBF0683DF01EFB912200210C
:1058700070673EF080F823222821706F3EF0CDF84B
:1058800038461BF015FB0146706F3DF06EFB18218A
:10589000706F3DF0B5FB2121706F3DF085FB142149
:1058A000706F3DF076FB3221706F3DF088FB012177
:1058B000706F3DF048FB71A1706F3DF0C7FBF06861
:1058C0003DF0F2FA91223821B0673EF054F82322DD
:1058D0007821B06F3EF0A1F838461BF0E9FA014696
:1058E000B06F3DF042FB1821B06F3DF089FB2121E4
:1058F000B06F3DF059FB1421B06F3DF04AFB3221EF
:10590000B06F3DF05CFB0821B06F3DF01CFB95EDE6
:105910000A0B53EC182B51EC100BFBF7D3FE10D0F5
:1059200095ED0A0B51EC100BFBF7FCFEFBF7B6FEF6
:1059300041EC100B43A153EC102B44480AF050F9F2
:1059400003E043A141480AF04BF94049B06F3DF0F4
:105950007DFB4BA301224049B06F3DF02FFCF06866
:105960003DF0A2FA9122D021F0673EF004F8232204
:105970007821F06F3EF051F838461BF099FA014655
:10598000F06F3DF0F2FA1821F06F3DF039FB212164
:10599000F06F3DF009FB1421F06F3DF0FAFA32216F
:1059A000F06F3DF00CFB0821F06F3DF0CCFA95ED67
:1059B000160B53EC182B51EC100BFBF783FE10D099
:1059C00095ED160B51EC100BFBF7ACFEFBF766FEEA
:1059D00041EC100B1BA153EC102B1C480AF000F9F2
:1059E00003E01BA119480AF0FBF81849F06F3DF0DD
:1059F0002DFB23A301221949F06F3DF0DFFBF06876
:105A00003DF052FA4C4691224146C9F800003DF063
:105A1000B2FF2322782120683DF0FFFF38461BF0BB
:105A200047FA014620683DF0A0FA1821206829E0D5
:105A3000000000000000000068270020083F01204F
:105A400053340000252E326600000000E052012091
:105A50002D2D000034000000E5B20008F53D0008DF
:105A6000253032643A253032643A25303264000001
:105A70002D2D3A2D2D3A2D2D00000000533500001C
:105A8000350000003DF0BCFA212120683DF08CFA81
:105A9000142120683DF07DFA322120683DF08FFA14
:105AA000082120683DF04FFA95ED160B53EC182BAA
:105AB00051EC100BFBF706FE0AD0D5F8EC00009075
:105AC000D5E93923AFF2680173480AF089F804E098
:105AD000AFF2640170480AF083F86F4920683DF026
